{
  "contractName": "ArcadeToken",
  "abi": [
    {
      "inputs": [
        {
          "internalType": "address",
          "name": "_priceFeed",
          "type": "address"
        }
      ],
      "stateMutability": "nonpayable",
      "type": "constructor"
    },
    {
      "inputs": [
        {
          "internalType": "address",
          "name": "spender",
          "type": "address"
        },
        {
          "internalType": "uint256",
          "name": "allowance",
          "type": "uint256"
        },
        {
          "internalType": "uint256",
          "name": "needed",
          "type": "uint256"
        }
      ],
      "name": "ERC20InsufficientAllowance",
      "type": "error"
    },
    {
      "inputs": [
        {
          "internalType": "address",
          "name": "sender",
          "type": "address"
        },
        {
          "internalType": "uint256",
          "name": "balance",
          "type": "uint256"
        },
        {
          "internalType": "uint256",
          "name": "needed",
          "type": "uint256"
        }
      ],
      "name": "ERC20InsufficientBalance",
      "type": "error"
    },
    {
      "inputs": [
        {
          "internalType": "address",
          "name": "approver",
          "type": "address"
        }
      ],
      "name": "ERC20InvalidApprover",
      "type": "error"
    },
    {
      "inputs": [
        {
          "internalType": "address",
          "name": "receiver",
          "type": "address"
        }
      ],
      "name": "ERC20InvalidReceiver",
      "type": "error"
    },
    {
      "inputs": [
        {
          "internalType": "address",
          "name": "sender",
          "type": "address"
        }
      ],
      "name": "ERC20InvalidSender",
      "type": "error"
    },
    {
      "inputs": [
        {
          "internalType": "address",
          "name": "spender",
          "type": "address"
        }
      ],
      "name": "ERC20InvalidSpender",
      "type": "error"
    },
    {
      "anonymous": false,
      "inputs": [
        {
          "indexed": true,
          "internalType": "address",
          "name": "owner",
          "type": "address"
        },
        {
          "indexed": true,
          "internalType": "address",
          "name": "spender",
          "type": "address"
        },
        {
          "indexed": false,
          "internalType": "uint256",
          "name": "value",
          "type": "uint256"
        }
      ],
      "name": "Approval",
      "type": "event"
    },
    {
      "anonymous": false,
      "inputs": [
        {
          "indexed": true,
          "internalType": "address",
          "name": "from",
          "type": "address"
        },
        {
          "indexed": true,
          "internalType": "address",
          "name": "to",
          "type": "address"
        },
        {
          "indexed": false,
          "internalType": "uint256",
          "name": "value",
          "type": "uint256"
        }
      ],
      "name": "Transfer",
      "type": "event"
    },
    {
      "inputs": [],
      "name": "USD_FEE",
      "outputs": [
        {
          "internalType": "uint256",
          "name": "",
          "type": "uint256"
        }
      ],
      "stateMutability": "view",
      "type": "function",
      "constant": true
    },
    {
      "inputs": [
        {
          "internalType": "address",
          "name": "owner",
          "type": "address"
        },
        {
          "internalType": "address",
          "name": "spender",
          "type": "address"
        }
      ],
      "name": "allowance",
      "outputs": [
        {
          "internalType": "uint256",
          "name": "",
          "type": "uint256"
        }
      ],
      "stateMutability": "view",
      "type": "function",
      "constant": true
    },
    {
      "inputs": [
        {
          "internalType": "address",
          "name": "spender",
          "type": "address"
        },
        {
          "internalType": "uint256",
          "name": "value",
          "type": "uint256"
        }
      ],
      "name": "approve",
      "outputs": [
        {
          "internalType": "bool",
          "name": "",
          "type": "bool"
        }
      ],
      "stateMutability": "nonpayable",
      "type": "function"
    },
    {
      "inputs": [
        {
          "internalType": "address",
          "name": "account",
          "type": "address"
        }
      ],
      "name": "balanceOf",
      "outputs": [
        {
          "internalType": "uint256",
          "name": "",
          "type": "uint256"
        }
      ],
      "stateMutability": "view",
      "type": "function",
      "constant": true
    },
    {
      "inputs": [],
      "name": "decimals",
      "outputs": [
        {
          "internalType": "uint8",
          "name": "",
          "type": "uint8"
        }
      ],
      "stateMutability": "view",
      "type": "function",
      "constant": true
    },
    {
      "inputs": [],
      "name": "feeCollector",
      "outputs": [
        {
          "internalType": "address",
          "name": "",
          "type": "address"
        }
      ],
      "stateMutability": "view",
      "type": "function",
      "constant": true
    },
    {
      "inputs": [],
      "name": "name",
      "outputs": [
        {
          "internalType": "string",
          "name": "",
          "type": "string"
        }
      ],
      "stateMutability": "view",
      "type": "function",
      "constant": true
    },
    {
      "inputs": [],
      "name": "symbol",
      "outputs": [
        {
          "internalType": "string",
          "name": "",
          "type": "string"
        }
      ],
      "stateMutability": "view",
      "type": "function",
      "constant": true
    },
    {
      "inputs": [],
      "name": "totalSupply",
      "outputs": [
        {
          "internalType": "uint256",
          "name": "",
          "type": "uint256"
        }
      ],
      "stateMutability": "view",
      "type": "function",
      "constant": true
    },
    {
      "inputs": [
        {
          "internalType": "address",
          "name": "to",
          "type": "address"
        },
        {
          "internalType": "uint256",
          "name": "value",
          "type": "uint256"
        }
      ],
      "name": "transfer",
      "outputs": [
        {
          "internalType": "bool",
          "name": "",
          "type": "bool"
        }
      ],
      "stateMutability": "nonpayable",
      "type": "function"
    },
    {
      "inputs": [
        {
          "internalType": "address",
          "name": "from",
          "type": "address"
        },
        {
          "internalType": "address",
          "name": "to",
          "type": "address"
        },
        {
          "internalType": "uint256",
          "name": "value",
          "type": "uint256"
        }
      ],
      "name": "transferFrom",
      "outputs": [
        {
          "internalType": "bool",
          "name": "",
          "type": "bool"
        }
      ],
      "stateMutability": "nonpayable",
      "type": "function"
    },
    {
      "inputs": [],
      "name": "getLatestPrice",
      "outputs": [
        {
          "internalType": "uint256",
          "name": "",
          "type": "uint256"
        }
      ],
      "stateMutability": "view",
      "type": "function",
      "constant": true
    },
    {
      "inputs": [],
      "name": "calculateFee",
      "outputs": [
        {
          "internalType": "uint256",
          "name": "",
          "type": "uint256"
        }
      ],
      "stateMutability": "view",
      "type": "function",
      "constant": true
    },
    {
      "inputs": [
        {
          "internalType": "address",
          "name": "to",
          "type": "address"
        },
        {
          "internalType": "uint256",
          "name": "amount",
          "type": "uint256"
        }
      ],
      "name": "mint",
      "outputs": [],
      "stateMutability": "payable",
      "type": "function",
      "payable": true
    }
  ],
  "bytecode": "0x608060405234801561001057600080fd5b50604051610d0d380380610d0d83398101604081905261002f916100c3565b6040518060400160405280600b81526020016a20b931b0b232aa37b5b2b760a91b81525060405180604001604052806004815260200163105490d160e21b815250816003908161007f9190610192565b50600461008c8282610192565b505060058054336001600160a01b031991821617909155600680549091166001600160a01b03939093169290921790915550610250565b6000602082840312156100d557600080fd5b81516001600160a01b03811681146100ec57600080fd5b9392505050565b634e487b7160e01b600052604160045260246000fd5b600181811c9082168061011d57607f821691505b60208210810361013d57634e487b7160e01b600052602260045260246000fd5b50919050565b601f82111561018d57806000526020600020601f840160051c8101602085101561016a5750805b601f840160051c820191505b8181101561018a5760008155600101610176565b50505b505050565b81516001600160401b038111156101ab576101ab6100f3565b6101bf816101b98454610109565b84610143565b6020601f8211600181146101f357600083156101db5750848201515b600019600385901b1c1916600184901b17845561018a565b600084815260208120601f198516915b828110156102235787850151825560209485019460019092019101610203565b50848210156102415786840151600019600387901b60f8161c191681555b50505050600190811b01905550565b610aae8061025f6000396000f3fe6080604052600436106100dd5760003560e01c80638e15f4731161007f578063a9059cbb11610059578063a9059cbb14610229578063c415b95c14610249578063dd62ed3e14610281578063e6af35f0146102c757600080fd5b80638e15f473146101e3578063947991bc146101f857806395d89b411461021457600080fd5b806323b872dd116100bb57806323b872dd1461015c578063313ce5671461017c57806340c10f191461019857806370a08231146101ad57600080fd5b806306fdde03146100e2578063095ea7b31461010d57806318160ddd1461013d575b600080fd5b3480156100ee57600080fd5b506100f76102dc565b604051610104919061084a565b60405180910390f35b34801561011957600080fd5b5061012d6101283660046108b4565b61036e565b6040519015158152602001610104565b34801561014957600080fd5b506002545b604051908152602001610104565b34801561016857600080fd5b5061012d6101773660046108de565b610388565b34801561018857600080fd5b5060405160128152602001610104565b6101ab6101a63660046108b4565b6103ac565b005b3480156101b957600080fd5b5061014e6101c836600461091b565b6001600160a01b031660009081526020819052604090205490565b3480156101ef57600080fd5b5061014e610449565b34801561020457600080fd5b5061014e670de0b6b3a764000081565b34801561022057600080fd5b506100f76104e0565b34801561023557600080fd5b5061012d6102443660046108b4565b6104ef565b34801561025557600080fd5b50600554610269906001600160a01b031681565b6040516001600160a01b039091168152602001610104565b34801561028d57600080fd5b5061014e61029c36600461093d565b6001600160a01b03918216600090815260016020908152604080832093909416825291909152205490565b3480156102d357600080fd5b5061014e6104fd565b6060600380546102eb90610970565b80601f016020809104026020016040519081016040528092919081815260200182805461031790610970565b80156103645780601f1061033957610100808354040283529160200191610364565b820191906000526020600020905b81548152906001019060200180831161034757829003601f168201915b5050505050905090565b60003361037c818585610527565b60019150505b92915050565b600033610396858285610534565b6103a18585856105b2565b506001949350505050565b60006103b66104fd565b9050803410156104005760405162461bcd60e51b815260206004820152601060248201526f496e73756666696369656e742066656560801b60448201526064015b60405180910390fd5b6005546040516001600160a01b03909116903480156108fc02916000818181858888f19350505050158015610439573d6000803e3d6000fd5b506104448383610611565b505050565b600080600660009054906101000a90046001600160a01b03166001600160a01b031663feaf968c6040518163ffffffff1660e01b815260040160a060405180830381865afa15801561049f573d6000803e3d6000fd5b505050506040513d601f19601f820116820180604052508101906104c391906109c4565b505050915050806402540be4006104da9190610a2c565b91505090565b6060600480546102eb90610970565b60003361037c8185856105b2565b600080610508610449565b90508061051d670de0b6b3a764000080610a2c565b6104da9190610a43565b610444838383600161064b565b6001600160a01b0383811660009081526001602090815260408083209386168352929052205460001981146105ac578181101561059d57604051637dc7a0d960e11b81526001600160a01b038416600482015260248101829052604481018390526064016103f7565b6105ac8484848403600061064b565b50505050565b6001600160a01b0383166105dc57604051634b637e8f60e11b8152600060048201526024016103f7565b6001600160a01b0382166106065760405163ec442f0560e01b8152600060048201526024016103f7565b610444838383610720565b6001600160a01b03821661063b5760405163ec442f0560e01b8152600060048201526024016103f7565b61064760008383610720565b5050565b6001600160a01b0384166106755760405163e602df0560e01b8152600060048201526024016103f7565b6001600160a01b03831661069f57604051634a1406b160e11b8152600060048201526024016103f7565b6001600160a01b03808516600090815260016020908152604080832093871683529290522082905580156105ac57826001600160a01b0316846001600160a01b03167f8c5be1e5ebec7d5bd14f71427d1e84f3dd0314c0f7b2291e5b200ac8c7c3b9258460405161071291815260200190565b60405180910390a350505050565b6001600160a01b03831661074b5780600260008282546107409190610a65565b909155506107bd9050565b6001600160a01b0383166000908152602081905260409020548181101561079e5760405163391434e360e21b81526001600160a01b038516600482015260248101829052604481018390526064016103f7565b6001600160a01b03841660009081526020819052604090209082900390555b6001600160a01b0382166107d9576002805482900390556107f8565b6001600160a01b03821660009081526020819052604090208054820190555b816001600160a01b0316836001600160a01b03167fddf252ad1be2c89b69c2b068fc378daa952ba7f163c4a11628f55a4df523b3ef8360405161083d91815260200190565b60405180910390a3505050565b602081526000825180602084015260005b81811015610878576020818601810151604086840101520161085b565b506000604082850101526040601f19601f83011684010191505092915050565b80356001600160a01b03811681146108af57600080fd5b919050565b600080604083850312156108c757600080fd5b6108d083610898565b946020939093013593505050565b6000806000606084860312156108f357600080fd5b6108fc84610898565b925061090a60208501610898565b929592945050506040919091013590565b60006020828403121561092d57600080fd5b61093682610898565b9392505050565b6000806040838503121561095057600080fd5b61095983610898565b915061096760208401610898565b90509250929050565b600181811c9082168061098457607f821691505b6020821081036109a457634e487b7160e01b600052602260045260246000fd5b50919050565b805169ffffffffffffffffffff811681146108af57600080fd5b600080600080600060a086880312156109dc57600080fd5b6109e5866109aa565b60208701516040880151606089015192975090955093509150610a0a608087016109aa565b90509295509295909350565b634e487b7160e01b600052601160045260246000fd5b808202811582820484141761038257610382610a16565b600082610a6057634e487b7160e01b600052601260045260246000fd5b500490565b8082018082111561038257610382610a1656fea264697066735822122067c1a6b4afaa09649e171cbe442c4806ab7a10ef78ae8502743f91ee6056e21d64736f6c634300081a0033",
  "immutableReferences": {},
  "source": "// SPDX-License-Identifier: MIT\r\npragma solidity ^0.8.0;\r\n\r\nimport \"@chainlink/contracts/src/v0.8/shared/interfaces/AggregatorV3Interface.sol\";\r\nimport \"@openzeppelin/contracts/token/ERC20/ERC20.sol\";\r\n\r\ncontract ArcadeToken is ERC20 {\r\n    address public feeCollector;\r\n    AggregatorV3Interface internal priceFeed;\r\n    uint256 public constant USD_FEE = 1 * 10 ** 18; // $1 in wei\r\n\r\n    constructor(address _priceFeed) ERC20(\"ArcadeToken\", \"ARCD\") {\r\n        feeCollector = msg.sender;\r\n        priceFeed = AggregatorV3Interface(_priceFeed); \r\n    }\r\n\r\n    function getLatestPrice() public view returns (uint256) {\r\n        (\r\n            , \r\n            int price,\r\n            ,\r\n            ,\r\n            \r\n        ) = priceFeed.latestRoundData();\r\n        return uint256(price) * 10 ** 10; // Convert price to 18 decimal places\r\n    }\r\n\r\n    function calculateFee() public view returns (uint256) {\r\n        uint256 ethPrice = getLatestPrice();\r\n        return (USD_FEE * 10**18) / ethPrice;\r\n    }\r\n\r\n    function mint(address to, uint256 amount) public payable {\r\n        uint256 fee = calculateFee();\r\n        require(msg.value >= fee, \"Insufficient fee\");\r\n        payable(feeCollector).transfer(msg.value);\r\n        _mint(to, amount);\r\n    }\r\n}\r\n",
  "sourcePath": "C:\\Users\\marti\\Documents\\projects\\blockchain-arcade\\frontend\\contracts\\ArcadeToken.sol",
  "compiler": {
    "name": "solc",
    "version": "0.8.26+commit.8a97fa7a.Emscripten.clang"
  },
  "schemaVersion": "3.4.16",
  "updatedAt": "2024-07-29T19:49:22.887Z",
  "networkType": "ethereum",
  "devdoc": {
    "errors": {
      "ERC20InsufficientAllowance(address,uint256,uint256)": [
        {
          "details": "Indicates a failure with the `spender`s `allowance`. Used in transfers.",
          "params": {
            "allowance": "Amount of tokens a `spender` is allowed to operate with.",
            "needed": "Minimum amount required to perform a transfer.",
            "spender": "Address that may be allowed to operate on tokens without being their owner."
          }
        }
      ],
      "ERC20InsufficientBalance(address,uint256,uint256)": [
        {
          "details": "Indicates an error related to the current `balance` of a `sender`. Used in transfers.",
          "params": {
            "balance": "Current balance for the interacting account.",
            "needed": "Minimum amount required to perform a transfer.",
            "sender": "Address whose tokens are being transferred."
          }
        }
      ],
      "ERC20InvalidApprover(address)": [
        {
          "details": "Indicates a failure with the `approver` of a token to be approved. Used in approvals.",
          "params": {
            "approver": "Address initiating an approval operation."
          }
        }
      ],
      "ERC20InvalidReceiver(address)": [
        {
          "details": "Indicates a failure with the token `receiver`. Used in transfers.",
          "params": {
            "receiver": "Address to which tokens are being transferred."
          }
        }
      ],
      "ERC20InvalidSender(address)": [
        {
          "details": "Indicates a failure with the token `sender`. Used in transfers.",
          "params": {
            "sender": "Address whose tokens are being transferred."
          }
        }
      ],
      "ERC20InvalidSpender(address)": [
        {
          "details": "Indicates a failure with the `spender` to be approved. Used in approvals.",
          "params": {
            "spender": "Address that may be allowed to operate on tokens without being their owner."
          }
        }
      ]
    },
    "events": {
      "Approval(address,address,uint256)": {
        "details": "Emitted when the allowance of a `spender` for an `owner` is set by a call to {approve}. `value` is the new allowance."
      },
      "Transfer(address,address,uint256)": {
        "details": "Emitted when `value` tokens are moved from one account (`from`) to another (`to`). Note that `value` may be zero."
      }
    },
    "kind": "dev",
    "methods": {
      "allowance(address,address)": {
        "details": "See {IERC20-allowance}."
      },
      "approve(address,uint256)": {
        "details": "See {IERC20-approve}. NOTE: If `value` is the maximum `uint256`, the allowance is not updated on `transferFrom`. This is semantically equivalent to an infinite approval. Requirements: - `spender` cannot be the zero address."
      },
      "balanceOf(address)": {
        "details": "See {IERC20-balanceOf}."
      },
      "decimals()": {
        "details": "Returns the number of decimals used to get its user representation. For example, if `decimals` equals `2`, a balance of `505` tokens should be displayed to a user as `5.05` (`505 / 10 ** 2`). Tokens usually opt for a value of 18, imitating the relationship between Ether and Wei. This is the default value returned by this function, unless it's overridden. NOTE: This information is only used for _display_ purposes: it in no way affects any of the arithmetic of the contract, including {IERC20-balanceOf} and {IERC20-transfer}."
      },
      "name()": {
        "details": "Returns the name of the token."
      },
      "symbol()": {
        "details": "Returns the symbol of the token, usually a shorter version of the name."
      },
      "totalSupply()": {
        "details": "See {IERC20-totalSupply}."
      },
      "transfer(address,uint256)": {
        "details": "See {IERC20-transfer}. Requirements: - `to` cannot be the zero address. - the caller must have a balance of at least `value`."
      },
      "transferFrom(address,address,uint256)": {
        "details": "See {IERC20-transferFrom}. Emits an {Approval} event indicating the updated allowance. This is not required by the EIP. See the note at the beginning of {ERC20}. NOTE: Does not update the allowance if the current allowance is the maximum `uint256`. Requirements: - `from` and `to` cannot be the zero address. - `from` must have a balance of at least `value`. - the caller must have allowance for ``from``'s tokens of at least `value`."
      }
    },
    "version": 1
  },
  "userdoc": {
    "kind": "user",
    "methods": {},
    "version": 1
  }
}