{
  "contractName": "ArcadeGame",
  "abi": [
    {
      "inputs": [
        {
          "internalType": "contract IERC20",
          "name": "_arcadeToken",
          "type": "address"
        },
        {
          "internalType": "uint256",
          "name": "_gameCost",
          "type": "uint256"
        }
      ],
      "stateMutability": "nonpayable",
      "type": "constructor"
    },
    {
      "anonymous": false,
      "inputs": [
        {
          "indexed": true,
          "internalType": "address",
          "name": "player",
          "type": "address"
        },
        {
          "indexed": false,
          "internalType": "uint256",
          "name": "cost",
          "type": "uint256"
        }
      ],
      "name": "GamePlayed",
      "type": "event"
    },
    {
      "inputs": [],
      "name": "arcadeToken",
      "outputs": [
        {
          "internalType": "contract IERC20",
          "name": "",
          "type": "address"
        }
      ],
      "stateMutability": "view",
      "type": "function",
      "constant": true
    },
    {
      "inputs": [],
      "name": "gameCost",
      "outputs": [
        {
          "internalType": "uint256",
          "name": "",
          "type": "uint256"
        }
      ],
      "stateMutability": "view",
      "type": "function",
      "constant": true
    },
    {
      "inputs": [],
      "name": "play",
      "outputs": [],
      "stateMutability": "nonpayable",
      "type": "function"
    },
    {
      "inputs": [
        {
          "internalType": "address",
          "name": "to",
          "type": "address"
        },
        {
          "internalType": "uint256",
          "name": "amount",
          "type": "uint256"
        }
      ],
      "name": "withdrawTokens",
      "outputs": [],
      "stateMutability": "nonpayable",
      "type": "function"
    }
  ],
  "bytecode": "0x6080604052348015600f57600080fd5b506040516104af3803806104af833981016040819052602c916054565b600080546001600160a01b0319166001600160a01b039390931692909217909155600155608c565b60008060408385031215606657600080fd5b82516001600160a01b0381168114607c57600080fd5b6020939093015192949293505050565b6104148061009b6000396000f3fe608060405234801561001057600080fd5b506004361061004c5760003560e01c806306b091f91461005157806393e84cd914610066578063cab896dc1461006e578063e533da321461008a575b600080fd5b61006461005f366004610364565b6100b5565b005b610064610131565b61007760015481565b6040519081526020015b60405180910390f35b60005461009d906001600160a01b031681565b6040516001600160a01b039091168152602001610081565b60005460405163a9059cbb60e01b81526001600160a01b038481166004830152602482018490529091169063a9059cbb906044016020604051808303816000875af1158015610108573d6000803e3d6000fd5b505050506040513d601f19601f8201168201806040525081019061012c919061039c565b505050565b6001546000546040516370a0823160e01b81523360048201526001600160a01b03909116906370a0823190602401602060405180830381865afa15801561017c573d6000803e3d6000fd5b505050506040513d601f19601f820116820180604052508101906101a091906103c5565b10156101f35760405162461bcd60e51b815260206004820152601a60248201527f496e73756666696369656e7420746f6b656e2062616c616e636500000000000060448201526064015b60405180910390fd5b600154600054604051636eb1769f60e11b81523360048201523060248201526001600160a01b039091169063dd62ed3e90604401602060405180830381865afa158015610244573d6000803e3d6000fd5b505050506040513d601f19601f8201168201806040525081019061026891906103c5565b10156102aa5760405162461bcd60e51b8152602060048201526011602482015270416c6c6f77616e636520746f6f206c6f7760781b60448201526064016101ea565b6000546001546040516323b872dd60e01b815233600482015230602482015260448101919091526001600160a01b03909116906323b872dd906064016020604051808303816000875af1158015610305573d6000803e3d6000fd5b505050506040513d601f19601f82011682018060405250810190610329919061039c565b5060015460405190815233907f5cf252cfe7d6524b0fd4e37008a2aa681dd2af06b44df112e00da3835515a3119060200160405180910390a2565b6000806040838503121561037757600080fd5b82356001600160a01b038116811461038e57600080fd5b946020939093013593505050565b6000602082840312156103ae57600080fd5b815180151581146103be57600080fd5b9392505050565b6000602082840312156103d757600080fd5b505191905056fea26469706673582212201ec18c80de9724ce4162f9baa02e56db6105e28a2cf70765868bf914c0c3768264736f6c634300081a0033",
  "immutableReferences": {},
  "source": "// SPDX-License-Identifier: MIT\r\npragma solidity ^0.8.0;\r\n\r\nimport \"@openzeppelin/contracts/token/ERC20/IERC20.sol\";\r\n\r\ncontract ArcadeGame {\r\n    IERC20 public arcadeToken;\r\n    uint256 public gameCost;\r\n\r\n    event GamePlayed(address indexed player, uint256 cost);\r\n\r\n    constructor(IERC20 _arcadeToken, uint256 _gameCost) {\r\n        arcadeToken = _arcadeToken;\r\n        gameCost = _gameCost;\r\n    }\r\n\r\n    function play() public {\r\n        require(arcadeToken.balanceOf(msg.sender) >= gameCost, \"Insufficient token balance\");\r\n        require(arcadeToken.allowance(msg.sender, address(this)) >= gameCost, \"Allowance too low\");\r\n\r\n        arcadeToken.transferFrom(msg.sender, address(this), gameCost);\r\n        emit GamePlayed(msg.sender, gameCost);\r\n    }\r\n\r\n    function withdrawTokens(address to, uint256 amount) public {\r\n        arcadeToken.transfer(to, amount);\r\n    }\r\n}\r\n",
  "sourcePath": "C:\\Users\\marti\\Documents\\projects\\blockchain-arcade\\frontend\\contracts\\ArcadeGame.sol",
  "compiler": {
    "name": "solc",
    "version": "0.8.26+commit.8a97fa7a.Emscripten.clang"
  },
  "schemaVersion": "3.4.16",
  "updatedAt": "2024-07-27T13:03:33.697Z",
  "networkType": "ethereum",
  "devdoc": {
    "kind": "dev",
    "methods": {},
    "version": 1
  },
  "userdoc": {
    "kind": "user",
    "methods": {},
    "version": 1
  }
}