{
  "contractName": "ArcadeGame",
  "abi": [
    {
      "inputs": [
        {
          "internalType": "uint256",
          "name": "_gameFee",
          "type": "uint256"
        }
      ],
      "stateMutability": "nonpayable",
      "type": "constructor"
    },
    {
      "inputs": [],
      "name": "gameFee",
      "outputs": [
        {
          "internalType": "uint256",
          "name": "",
          "type": "uint256"
        }
      ],
      "stateMutability": "view",
      "type": "function",
      "constant": true
    },
    {
      "inputs": [],
      "name": "playGame",
      "outputs": [
        {
          "internalType": "bool",
          "name": "",
          "type": "bool"
        }
      ],
      "stateMutability": "payable",
      "type": "function",
      "payable": true
    }
  ],
  "bytecode": "0x6080604052348015600f57600080fd5b5060405161014a38038061014a833981016040819052602c916033565b600055604b565b600060208284031215604457600080fd5b5051919050565b60f1806100596000396000f3fe60806040526004361060265760003560e01c8063af89973514602b578063ea777eec146046575b600080fd5b60316067565b60405190151581526020015b60405180910390f35b348015605157600080fd5b50605a60005481565b604051908152602001603d565b6000805434101560b55760405162461bcd60e51b8152602060048201526015602482015274496e73756666696369656e742067616d652066656560581b604482015260640160405180910390fd5b5060019056fea264697066735822122087ff70cf3895a2144347ccda7fc9ef5f2ae12a9dabf371ef0c095df433aa1e1d64736f6c634300081a0033",
  "immutableReferences": {},
  "source": "// SPDX-License-Identifier: MIT\r\npragma solidity ^0.8.0;\r\n\r\ncontract ArcadeGame {\r\n    uint256 public gameFee;\r\n\r\n    constructor(uint256 _gameFee) {\r\n        gameFee = _gameFee;\r\n    }\r\n\r\n    function playGame() public payable returns (bool) {\r\n        require(msg.value >= gameFee, \"Insufficient game fee\");\r\n        // Game logic here\r\n        return true;\r\n    }\r\n}\r\n",
  "sourcePath": "C:\\Users\\marti\\Documents\\projects\\blockchain-arcade\\frontend\\contracts\\ArcadeGame.sol",
  "compiler": {
    "name": "solc",
    "version": "0.8.26+commit.8a97fa7a.Emscripten.clang"
  },
  "schemaVersion": "3.4.16",
  "updatedAt": "2024-07-26T11:15:54.347Z",
  "networkType": "ethereum",
  "devdoc": {
    "kind": "dev",
    "methods": {},
    "version": 1
  },
  "userdoc": {
    "kind": "user",
    "methods": {},
    "version": 1
  }
}