{
  "contractName": "GameManager",
  "abi": [
    {
      "inputs": [
        {
          "internalType": "contract ArcadeToken",
          "name": "_token",
          "type": "address"
        },
        {
          "internalType": "contract ArcadeGame",
          "name": "_game",
          "type": "address"
        }
      ],
      "stateMutability": "nonpayable",
      "type": "constructor"
    },
    {
      "inputs": [],
      "name": "game",
      "outputs": [
        {
          "internalType": "contract ArcadeGame",
          "name": "",
          "type": "address"
        }
      ],
      "stateMutability": "view",
      "type": "function",
      "constant": true
    },
    {
      "inputs": [],
      "name": "owner",
      "outputs": [
        {
          "internalType": "address",
          "name": "",
          "type": "address"
        }
      ],
      "stateMutability": "view",
      "type": "function",
      "constant": true
    },
    {
      "inputs": [],
      "name": "token",
      "outputs": [
        {
          "internalType": "contract ArcadeToken",
          "name": "",
          "type": "address"
        }
      ],
      "stateMutability": "view",
      "type": "function",
      "constant": true
    },
    {
      "inputs": [],
      "name": "playGame",
      "outputs": [],
      "stateMutability": "nonpayable",
      "type": "function"
    }
  ],
  "bytecode": "0x6080604052348015600f57600080fd5b506040516103d83803806103d8833981016040819052602c916083565b600080546001600160a01b039384166001600160a01b031991821617909155600180549290931691811691909117909155600280549091163317905560b8565b6001600160a01b0381168114608057600080fd5b50565b60008060408385031215609557600080fd5b8251609e81606c565b602084015190925060ad81606c565b809150509250929050565b610311806100c76000396000f3fe608060405234801561001057600080fd5b506004361061004c5760003560e01c80638da5cb5b14610051578063af89973514610080578063c3fe3e281461008a578063fc0c546a1461009d575b600080fd5b600254610064906001600160a01b031681565b6040516001600160a01b03909116815260200160405180910390f35b6100886100b0565b005b600154610064906001600160a01b031681565b600054610064906001600160a01b031681565b60015460408051633a9ddfbb60e21b815290516000926001600160a01b03169163ea777eec9160048083019260209291908290030181865afa1580156100fa573d6000803e3d6000fd5b505050506040513d601f19601f8201168201806040525081019061011e9190610299565b6000546040516323b872dd60e01b8152336004820152306024820152604481018390529192506001600160a01b0316906323b872dd906064016020604051808303816000875af1158015610176573d6000803e3d6000fd5b505050506040513d601f19601f8201168201806040525081019061019a91906102b2565b6101dd5760405162461bcd60e51b815260206004820152600f60248201526e151c985b9cd9995c8819985a5b1959608a1b60448201526064015b60405180910390fd5b600160009054906101000a90046001600160a01b03166001600160a01b031663af899735826040518263ffffffff1660e01b815260040160206040518083038185885af1158015610232573d6000803e3d6000fd5b50505050506040513d601f19601f8201168201806040525081019061025791906102b2565b6102965760405162461bcd60e51b815260206004820152601060248201526f11d85b59481c1b185e4819985a5b195960821b60448201526064016101d4565b50565b6000602082840312156102ab57600080fd5b5051919050565b6000602082840312156102c457600080fd5b815180151581146102d457600080fd5b939250505056fea2646970667358221220df4d30d2d4c5cd7a00e286ace86b8be3d81d508ae4a463c8bdc1e91d4d0cbfbc64736f6c634300081a0033",
  "immutableReferences": {},
  "source": "// SPDX-License-Identifier: MIT\r\npragma solidity ^0.8.0;\r\n\r\nimport \"./ArcadeToken.sol\";\r\nimport \"./ArcadeGame.sol\";\r\n\r\ncontract GameManager {\r\n    ArcadeToken public token;\r\n    ArcadeGame public game;\r\n    address public owner;\r\n\r\n    constructor(ArcadeToken _token, ArcadeGame _game) {\r\n        token = _token;\r\n        game = _game;\r\n        owner = msg.sender;\r\n    }\r\n\r\n    function playGame() public {\r\n        uint256 gameFee = game.gameFee();\r\n        require(token.transferFrom(msg.sender, address(this), gameFee), \"Transfer failed\");\r\n        require(game.playGame{value: gameFee}(), \"Game play failed\");\r\n    }\r\n}\r\n",
  "sourcePath": "C:\\Users\\marti\\Documents\\projects\\blockchain-arcade\\frontend\\contracts\\GameManager.sol",
  "compiler": {
    "name": "solc",
    "version": "0.8.26+commit.8a97fa7a.Emscripten.clang"
  },
  "schemaVersion": "3.4.16",
  "updatedAt": "2024-07-26T11:15:54.351Z",
  "networkType": "ethereum",
  "devdoc": {
    "kind": "dev",
    "methods": {},
    "version": 1
  },
  "userdoc": {
    "kind": "user",
    "methods": {},
    "version": 1
  }
}