{
  "contractName": "GameManager",
  "abi": [
    {
      "inputs": [
        {
          "internalType": "contract ArcadeToken",
          "name": "_token",
          "type": "address"
        }
      ],
      "stateMutability": "nonpayable",
      "type": "constructor"
    },
    {
      "inputs": [
        {
          "internalType": "address",
          "name": "",
          "type": "address"
        }
      ],
      "name": "registeredGames",
      "outputs": [
        {
          "internalType": "bool",
          "name": "",
          "type": "bool"
        }
      ],
      "stateMutability": "view",
      "type": "function",
      "constant": true
    },
    {
      "inputs": [],
      "name": "token",
      "outputs": [
        {
          "internalType": "contract ArcadeToken",
          "name": "",
          "type": "address"
        }
      ],
      "stateMutability": "view",
      "type": "function",
      "constant": true
    },
    {
      "inputs": [
        {
          "internalType": "address",
          "name": "gameAddress",
          "type": "address"
        }
      ],
      "name": "registerGame",
      "outputs": [],
      "stateMutability": "nonpayable",
      "type": "function"
    },
    {
      "inputs": [
        {
          "internalType": "address",
          "name": "gameAddress",
          "type": "address"
        }
      ],
      "name": "playGame",
      "outputs": [],
      "stateMutability": "nonpayable",
      "type": "function"
    }
  ],
  "bytecode": "0x6080604052348015600f57600080fd5b506040516102af3803806102af833981016040819052602c916050565b600080546001600160a01b0319166001600160a01b0392909216919091179055607e565b600060208284031215606157600080fd5b81516001600160a01b0381168114607757600080fd5b9392505050565b6102228061008d6000396000f3fe608060405234801561001057600080fd5b506004361061004c5760003560e01c806307c331cd146100515780636a8354a4146100665780639b36057c1461009e578063fc0c546a146100d3575b600080fd5b61006461005f3660046101bc565b6100fe565b005b6100896100743660046101bc565b60016020526000908152604090205460ff1681565b60405190151581526020015b60405180910390f35b6100646100ac3660046101bc565b6001600160a01b03166000908152600160208190526040909120805460ff19169091179055565b6000546100e6906001600160a01b031681565b6040516001600160a01b039091168152602001610095565b6001600160a01b03811660009081526001602052604090205460ff166101605760405162461bcd60e51b815260206004820152601360248201527211d85b59481b9bdd081c9959da5cdd195c9959606a1b604482015260640160405180910390fd5b6000819050806001600160a01b03166393e84cd96040518163ffffffff1660e01b8152600401600060405180830381600087803b1580156101a057600080fd5b505af11580156101b4573d6000803e3d6000fd5b505050505050565b6000602082840312156101ce57600080fd5b81356001600160a01b03811681146101e557600080fd5b939250505056fea264697066735822122081ba8499f8b7050beedcde51a31e938051cd0b667ef9502375f2623e12c7e96464736f6c634300081a0033",
  "immutableReferences": {},
  "source": "// SPDX-License-Identifier: MIT\r\npragma solidity ^0.8.0;\r\n\r\nimport \"./ArcadeToken.sol\";\r\nimport \"./BaseGame.sol\";\r\n\r\ncontract GameManager {\r\n    ArcadeToken public token;\r\n    mapping(address => bool) public registeredGames;\r\n\r\n    constructor(ArcadeToken _token) {\r\n        token = _token;\r\n    }\r\n\r\n    function registerGame(address gameAddress) public {\r\n        registeredGames[gameAddress] = true;\r\n    }\r\n\r\n    function playGame(address gameAddress) public {\r\n        require(registeredGames[gameAddress], \"Game not registered\");\r\n        BaseGame game = BaseGame(gameAddress);\r\n        game.play();\r\n    }\r\n}\r\n",
  "sourcePath": "C:\\Users\\marti\\Documents\\projects\\blockchain-arcade\\frontend\\contracts\\GameManager.sol",
  "compiler": {
    "name": "solc",
    "version": "0.8.26+commit.8a97fa7a.Emscripten.clang"
  },
  "schemaVersion": "3.4.16",
  "updatedAt": "2024-07-30T21:54:52.893Z",
  "networkType": "ethereum",
  "devdoc": {
    "kind": "dev",
    "methods": {},
    "version": 1
  },
  "userdoc": {
    "kind": "user",
    "methods": {},
    "version": 1
  }
}