{
  "contractName": "GameManager",
  "abi": [
    {
      "inputs": [
        {
          "internalType": "address",
          "name": "_token",
          "type": "address"
        },
        {
          "internalType": "address",
          "name": "_game",
          "type": "address"
        }
      ],
      "stateMutability": "nonpayable",
      "type": "constructor"
    },
    {
      "inputs": [],
      "name": "game",
      "outputs": [
        {
          "internalType": "contract ArcadeGame",
          "name": "",
          "type": "address"
        }
      ],
      "stateMutability": "view",
      "type": "function",
      "constant": true
    },
    {
      "inputs": [],
      "name": "token",
      "outputs": [
        {
          "internalType": "contract ArcadeToken",
          "name": "",
          "type": "address"
        }
      ],
      "stateMutability": "view",
      "type": "function",
      "constant": true
    },
    {
      "inputs": [],
      "name": "playGame",
      "outputs": [],
      "stateMutability": "nonpayable",
      "type": "function"
    }
  ],
  "bytecode": "0x6080604052348015600f57600080fd5b5060405161048b38038061048b833981016040819052602c916077565b600080546001600160a01b039384166001600160a01b0319918216179091556001805492909316911617905560a5565b80516001600160a01b0381168114607257600080fd5b919050565b60008060408385031215608957600080fd5b609083605c565b9150609c60208401605c565b90509250929050565b6103d7806100b46000396000f3fe608060405234801561001057600080fd5b50600436106100415760003560e01c8063af89973514610046578063c3fe3e2814610050578063fc0c546a1461007f575b600080fd5b61004e610092565b005b600154610063906001600160a01b031681565b6040516001600160a01b03909116815260200160405180910390f35b600054610063906001600160a01b031681565b600154604080516332ae25b760e21b815290516000926001600160a01b03169163cab896dc9160048083019260209291908290030181865afa1580156100dc573d6000803e3d6000fd5b505050506040513d601f19601f82011682018060405250810190610100919061035f565b600054604051636eb1769f60e11b815233600482015230602482015291925082916001600160a01b039091169063dd62ed3e90604401602060405180830381865afa158015610153573d6000803e3d6000fd5b505050506040513d601f19601f82011682018060405250810190610177919061035f565b10156101be5760405162461bcd60e51b8152602060048201526011602482015270105b1b1bddd85b98d9481b9bdd081cd95d607a1b60448201526064015b60405180910390fd5b6000546040516370a0823160e01b815233600482015282916001600160a01b0316906370a0823190602401602060405180830381865afa158015610206573d6000803e3d6000fd5b505050506040513d601f19601f8201168201806040525081019061022a919061035f565b10156102785760405162461bcd60e51b815260206004820152601a60248201527f496e73756666696369656e7420746f6b656e2062616c616e636500000000000060448201526064016101b5565b6000546040516323b872dd60e01b8152336004820152306024820152604481018390526001600160a01b03909116906323b872dd906064016020604051808303816000875af11580156102cf573d6000803e3d6000fd5b505050506040513d601f19601f820116820180604052508101906102f39190610378565b50600160009054906101000a90046001600160a01b03166001600160a01b03166393e84cd96040518163ffffffff1660e01b8152600401600060405180830381600087803b15801561034457600080fd5b505af1158015610358573d6000803e3d6000fd5b5050505050565b60006020828403121561037157600080fd5b5051919050565b60006020828403121561038a57600080fd5b8151801515811461039a57600080fd5b939250505056fea2646970667358221220a02852806fe6afa3979af270f9eac15426a5cc4980b4252057fcea73eee500c364736f6c634300081a0033",
  "immutableReferences": {},
  "source": "// SPDX-License-Identifier: MIT\r\npragma solidity ^0.8.0;\r\n\r\nimport \"./ArcadeToken.sol\";\r\nimport \"./ArcadeGame.sol\";\r\n\r\ncontract GameManager {\r\n    ArcadeToken public token;\r\n    ArcadeGame public game;\r\n\r\n    constructor(address _token, address _game) {\r\n        token = ArcadeToken(_token);\r\n        game = ArcadeGame(_game);\r\n    }\r\n\r\n    function playGame() public {\r\n        uint256 gameCost = game.gameCost();\r\n        require(token.allowance(msg.sender, address(this)) >= gameCost, \"Allowance not set\");\r\n        require(token.balanceOf(msg.sender) >= gameCost, \"Insufficient token balance\");\r\n\r\n        token.transferFrom(msg.sender, address(this), gameCost);\r\n        game.play();\r\n    }\r\n}\r\n",
  "sourcePath": "C:\\Users\\marti\\Documents\\projects\\blockchain-arcade\\frontend\\contracts\\GameManager.sol",
  "compiler": {
    "name": "solc",
    "version": "0.8.26+commit.8a97fa7a.Emscripten.clang"
  },
  "schemaVersion": "3.4.16",
  "updatedAt": "2024-07-29T19:49:22.901Z",
  "networkType": "ethereum",
  "devdoc": {
    "kind": "dev",
    "methods": {},
    "version": 1
  },
  "userdoc": {
    "kind": "user",
    "methods": {},
    "version": 1
  }
}