{
  "contractName": "MockV3Aggregator",
  "abi": [
    {
      "inputs": [
        {
          "internalType": "uint8",
          "name": "decimals",
          "type": "uint8"
        },
        {
          "internalType": "int256",
          "name": "initialAnswer",
          "type": "int256"
        }
      ],
      "stateMutability": "nonpayable",
      "type": "constructor"
    },
    {
      "inputs": [],
      "name": "decimals",
      "outputs": [
        {
          "internalType": "uint8",
          "name": "",
          "type": "uint8"
        }
      ],
      "stateMutability": "view",
      "type": "function",
      "constant": true
    },
    {
      "inputs": [],
      "name": "description",
      "outputs": [
        {
          "internalType": "string",
          "name": "",
          "type": "string"
        }
      ],
      "stateMutability": "pure",
      "type": "function",
      "constant": true
    },
    {
      "inputs": [],
      "name": "version",
      "outputs": [
        {
          "internalType": "uint256",
          "name": "",
          "type": "uint256"
        }
      ],
      "stateMutability": "pure",
      "type": "function",
      "constant": true
    },
    {
      "inputs": [
        {
          "internalType": "uint80",
          "name": "",
          "type": "uint80"
        }
      ],
      "name": "getRoundData",
      "outputs": [
        {
          "internalType": "uint80",
          "name": "",
          "type": "uint80"
        },
        {
          "internalType": "int256",
          "name": "answer",
          "type": "int256"
        },
        {
          "internalType": "uint256",
          "name": "",
          "type": "uint256"
        },
        {
          "internalType": "uint256",
          "name": "",
          "type": "uint256"
        },
        {
          "internalType": "uint80",
          "name": "",
          "type": "uint80"
        }
      ],
      "stateMutability": "view",
      "type": "function",
      "constant": true
    },
    {
      "inputs": [],
      "name": "latestRoundData",
      "outputs": [
        {
          "internalType": "uint80",
          "name": "",
          "type": "uint80"
        },
        {
          "internalType": "int256",
          "name": "answer",
          "type": "int256"
        },
        {
          "internalType": "uint256",
          "name": "",
          "type": "uint256"
        },
        {
          "internalType": "uint256",
          "name": "",
          "type": "uint256"
        },
        {
          "internalType": "uint80",
          "name": "",
          "type": "uint80"
        }
      ],
      "stateMutability": "view",
      "type": "function",
      "constant": true
    },
    {
      "inputs": [
        {
          "internalType": "int256",
          "name": "newAnswer",
          "type": "int256"
        }
      ],
      "name": "updateAnswer",
      "outputs": [],
      "stateMutability": "nonpayable",
      "type": "function"
    }
  ],
  "bytecode": "0x6080604052348015600f57600080fd5b50604051610290380380610290833981016040819052602c916048565b6001805460ff191660ff9390931692909217909155600055607a565b60008060408385031215605a57600080fd5b825160ff81168114606a57600080fd5b6020939093015192949293505050565b610207806100896000396000f3fe608060405234801561001057600080fd5b50600436106100625760003560e01c8063313ce5671461006757806354fd4d50146100815780637284e416146100905780639a6fc8f5146100c2578063a87a20ce14610116578063feaf968c1461012b575b600080fd5b60015460405160ff90911681526020015b60405180910390f35b60405160008152602001610078565b604080518082018252601081526f26b7b1b5ab19a0b3b3b932b3b0ba37b960811b602082015290516100789190610137565b6100df6100d0366004610185565b50600080549091829081908190565b6040805169ffffffffffffffffffff968716815260208101959095528401929092526060830152909116608082015260a001610078565b6101296101243660046101b8565b600055565b005b600080548180806100df565b602081526000825180602084015260005b818110156101655760208186018101516040868401015201610148565b506000604082850101526040601f19601f83011684010191505092915050565b60006020828403121561019757600080fd5b813569ffffffffffffffffffff811681146101b157600080fd5b9392505050565b6000602082840312156101ca57600080fd5b503591905056fea2646970667358221220c68b06d27b0ebb8800842052233cdc1579ac4ab406d1d72d8935fb63d9459d3664736f6c634300081a0033",
  "immutableReferences": {},
  "source": "// SPDX-License-Identifier: MIT\r\npragma solidity ^0.8.0;\r\n\r\nimport \"@chainlink/contracts/src/v0.8/shared/interfaces/AggregatorV3Interface.sol\";\r\n\r\ncontract MockV3Aggregator is AggregatorV3Interface {\r\n    int256 private _latestAnswer;\r\n    uint8 private _decimals;\r\n\r\n    constructor(uint8 decimals, int256 initialAnswer) {\r\n        _decimals = decimals;\r\n        _latestAnswer = initialAnswer;\r\n    }\r\n\r\n    function decimals() external view override returns (uint8) {\r\n        return _decimals;\r\n    }\r\n\r\n    function description() external pure override returns (string memory) {\r\n        return \"MockV3Aggregator\";\r\n    }\r\n\r\n    function version() external pure override returns (uint256) {\r\n        return 0;\r\n    }\r\n\r\n    function getRoundData(uint80)\r\n        external\r\n        view\r\n        override\r\n        returns (\r\n            uint80,\r\n            int256 answer,\r\n            uint256,\r\n            uint256,\r\n            uint80\r\n        )\r\n    {\r\n        return (0, _latestAnswer, 0, 0, 0);\r\n    }\r\n\r\n    function latestRoundData()\r\n        external\r\n        view\r\n        override\r\n        returns (\r\n            uint80,\r\n            int256 answer,\r\n            uint256,\r\n            uint256,\r\n            uint80\r\n        )\r\n    {\r\n        return (0, _latestAnswer, 0, 0, 0);\r\n    }\r\n\r\n    function updateAnswer(int256 newAnswer) public {\r\n        _latestAnswer = newAnswer;\r\n    }\r\n}\r\n",
  "sourcePath": "C:\\Users\\marti\\Documents\\projects\\blockchain-arcade\\frontend\\contracts\\MockV3Aggregator.sol",
  "compiler": {
    "name": "solc",
    "version": "0.8.26+commit.8a97fa7a.Emscripten.clang"
  },
  "schemaVersion": "3.4.16",
  "updatedAt": "2024-07-30T21:54:52.876Z",
  "networkType": "ethereum",
  "devdoc": {
    "kind": "dev",
    "methods": {},
    "version": 1
  },
  "userdoc": {
    "kind": "user",
    "methods": {},
    "version": 1
  }
}